:060000000A128A110E280D
:10000800FE00030EF2000408F3000A08F4000A12C6
:100018008A1129280A128A11112883132A30FD000F
:100028000130FE00F830FF00203084000A128A11E7
:10003800DB210A128A11BB01BC01F501F601F701A7
:10004800F80183010A128A11EA290B1C2C282D2891
:100058004828831203130618322833283F28013012
:10006800F000700885070508F000F1017008BB0072
:100078007108BC00462886184228432846280130C3
:10008800850237280B108A280B1D4B284C288A28F4
:100098000B11FA3083120313810088017508760466
:1000A800031D5728582865283908203E84008313E3
:1000B80000088700081108140130F5000030F60028
:1000C8008A2875037604031D6A286B287828370860
:1000D800203E84008313000887000810881402302B
:1000E800F5000030F6008A28023075067604031DF4
:1000F8007E287F288A283508203E8400831300083C
:10010800870088100815F501F6018A2874088A0006
:1001180073088400720E8300FE0E7E0E090083129F
:100128000313B001AB1F99289A28A128AA09AB0983
:10013800AA0A0319AB0AB001B00AAD1FA428A52862
:10014800AE28AC09AD09AC0A0319AD0A0130AE00FE
:100158002E08B006B101B2012A082B040319B528EC
:10016800B628ED28AF01AF0AC42801300310AA0D44
:10017800AB0DFF3E031DBA280130AE002E08AF07B5
:10018800AB1FC728C828B92801300310B10DB20D1C
:10019800FF3E031DC9282B082D02031DD5282A0858
:1001A8002C02031CD828D928E0282A08AC022B08DE
:1001B800031CAD03AD02311401300310AB0CAA0CC3
:1001C800FF3E031DE1280130AF02031DEC28ED2896
:1001D800C82830080319F128F228F728B109B2090C
:1001E800B10A0319B20A3208AB003108AA000800A4
:1001F80083120313B001AD1F022903290A29AC0990
:10020800AD09AC0A0319AD0AB001B00AAB1F0D293C
:100218000E291329AA09AB09AA0A0319AB0A2A0845
:100228002B040319182919294829AF01AF0A2729CE
:1002380001300310AA0DAB0DFF3E031D1D2901302F
:10024800AE002E08AF07AB1F2A292B291C292B0823
:100258002D02031D31292A082C02031C34293529B3
:100268003B292A08AC022B08031CAD03AD02013060
:100278000310AB0CAA0CFF3E031D3C290130AF0252
:10028800031D472948292B29300803194C294D29D2
:100298005229AC09AD09AC0A0319AD0A2D08AB0007
:1002A8002C08AA000800643083120313AA00003047
:1002B800AB003C08AD003B08AC000A128A11FC20D8
:1002C8000A128A11831203132B08B4002A08B300F8
:1002D8000A30AA000030AB003408AD003308AC0087
:1002E8000A128A11FC200A128A11831203132B089E
:1002F800BA002A08B9000A30AA000030AB00340856
:10030800AD003308AC000A128A1193200A128A1130
:10031800831203132B08B8002A08B7006430AA0018
:100328000030AB003C08AD003B08AC000A128A1153
:1003380093200A128A11831203132B08B6002A0885
:10034800B500080083160317880189018316031373
:10035800850183120313850183160313870188011E
:10036800831203138701831603130614861481135B
:10037800151495148B178B15161496140B108112DF
:1003880081110114811401150B11FA308312031322
:1003980081008B160B11831603130F088F396038F1
:1003A8008F000F1408007E088A007F0882000A1256
:1003B8008A11D7210A128A118000840A04087D064E
:1003C80003190034FF0A0319FE0ADB290A128A11ED
:1003D800A6210A128A110A128A1157210A128A11B1
:1003E800EF290A128A110E283F3406345B344F3441
:0C03F80066346D347D3407347F346F347C
:08400000FF3FFF3FFF3FFF3FC0
:04400E00D420FF3F7C
:00000001FF
